:100000000C943D000C94A8120C94A8120C94A81205
:100010000C94A8120C94A8120C94A8120C94A81278
:100020000C94A8120C9459070C94A8120C94A808CC
:100030000C94A8120C94A8120C944B090C94A812BE
:100040000C94A8120C94A8120C94A8120C94A81248
:100050000C94A8120C94A8120C94A8120C94A81238
:100060000C94A8120C94A812010001208001200118
:100070002200255E01220126800011241FBECFEF41
:10008000D8E0DEBFCDBFE8E6F0E040E017C0B591B4
:10009000A59135912591059107FD0CC0959185910C
:1000A000EF01F92FE82F05900D92A217B307D9F7AA
:1000B000FE0104C01D92A217B307E1F7E937F40768
:0E00C00031F70E94A2110C941312F894FFCF96
:1000CE0064697374616E63653A25750A00446973D9
:1000DE0074616E63653A2025752000416E676C650C
:0500EE003A2025750019
:1000F30068076C094C836A9074A07AC00080688892
:0601030000846C82008103
:0A010900616E676C653A25750A0007
:07011300286E756C6C2900D9
:06011A00286E696C29004B
:10012000A3EAB0E0E6E9F0E00C9466104C01590156
:10013000C756DF4F488359836A83C959D040212C61
:10014000312C6E012BE8C20ED11C85E2782E2601DF
:1001500030E8632ECE018D569F4FC456DF4F9983F2
:100160008883CC59D0409C0140E8CF55DF4F28838D
:1001700039834A83C15AD040C756DF4F4881C95995
:10018000D040C656DF4F5881CA59D040C556DF4FC0
:100190006881CB59D040FA01849167FD8081882322
:1001A00009F4C9C3CF57DF4F19821882C158D04014
:1001B0008FEF9FEFCD57DF4F99838883C358D0408F
:1001C000CB57DF4F19821882C558D040A1E0B0E06C
:1001D000AC0FBD1FC957DF4FB983A883C758D040A4
:1001E000E0E8F0E0C757DF4FF983E883C958D04013
:1001F000CA01A62FE12CF12CFC012491A7FD20813E
:1002000021111BC0E114F10401F19701C4010E9406
:10021000220FC756DF4F88819981AA81C959D040E2
:100220008E0D9F1DA11DF7FCAA95C756DF4F888331
:100230009983AA83C959D04008C00196A11D2532CF
:1002400009F3FFEFEF1AFF0AD7CFC756DF4F8881B8
:100250009981AA81C959D040FC012491A7FD208130
:10026000253209F056C39C014A2F2F5F3F4F4F4F55
:10027000C256DF4F288339834A83CE59D040C756B0
:10028000DF4F288339834A83C959D040C756DF4F8F
:1002900088819981AA81C959D040FC012491A7FD88
:1002A00020812B3241F4CF57DF4F28813981C1584B
:1002B000D04024600BC02C32CCF02D3259F5CF57F2
:1002C000DF4F28813981C158D0402160CF57DF4F9F
:1002D00039832883C158D0400196A11DC756DF4FEE
:1002E00088839983AA83C959D040D0CF203241F462
:1002F000CF57DF4F28813981C158D0402860E6CFE1
:10030000233291F4CF57DF4F28813981C158D04033
:100310002061DCCF203341F4CF57DF4F2881398172
:10032000C158D0402260D2CF2A3299F50196A11D42
:10033000C756DF4F88839983AA83C959D040D50116
:10034000ED91FC911197CF0102968D939C93808142
:100350009181CB57DF4F99838883C558D04097FF51
:100360003EC0CF57DF4F28813981C158D040B1E01E
:100370002B27CF57DF4F39832883C158D040919521
:1003800081959109CB57DF4F99838883C558D04019
:1003900026C0BC018A2F0E94560ECB57DF4F99838F
:1003A0008883C558D040C756DF4F288139814A819C
:1003B000C959D040F901849147FD8081082E000C75
:1003C000990BC0970A9758F42F5F3F4F4F4FC7566E
:1003D000DF4F288339834A83C959D040E4CFCF57B0
:1003E000DF4F88819981C158D04080FF07C08D7F41
:1003F000CF57DF4F99838883C158D040C756DF4F0E
:1004000088819981AA81C959D040FC012491A7FD16
:1004100020812E3209F058C0CD57DF4F1982188243
:10042000C358D0409C014A2F2F5F3F4F4F4FC756B4
:10043000DF4F288339834A83C959D040F901549149
:1004400047FD50815A32D1F40296A11DC756DF4FA5
:1004500088839983AA83C959D040D501ED91FC9135
:100460001197CF0102968D939C9380819181CD57F6
:10047000DF4F99838883C358D04026C0842FB901A9
:100480000E94560ECD57DF4F99838883C358D040C2
:10049000C756DF4F288139814A81C959D040F901B7
:1004A000849147FD8081082E000C990BC0970A9714
:1004B00058F42F5F3F4F4F4FC756DF4F2883398384
:1004C0004A83C959D040E4CFCE0187569F4F0E943E
:1004D000BE0D182FC756DF4F2881C959D040C656C8
:1004E000DF4F8881CA59D040C556DF4F9881CB591C
:1004F000D040E22FF82F849197FD8081082E000CC8
:10050000990B0E944E128936910509F45AC0B4F431
:100510008336910509F466C144F48532910509F4E6
:10052000A1C18136910529F1B3C18436910509F441
:1005300048C0883691050CF42DC1AAC180379105B9
:1005400009F4CBC04CF48E36910509F419C18F36ED
:10055000910509F47CC09CC18537910509F454C00C
:100560008837910509F496C08337910509F090C149
:1005700058C1612F70E0A501C6010E94ED0F892BC3
:1005800009F4B7C1C756DF4F88819981AA81C9593B
:10059000D0409C014A2F2F5F3F4F4F4FC756DF4F30
:1005A000288339834A83C959D040FC012491A7FD8F
:1005B0002081A601BE016F577F4FC4010E94A51282
:1005C00095C1612F70E0950141E050E0C6010E94A5
:1005D000A006892B09F48DC1C756DF4F8881998108
:1005E000AA81C959D0400196A11DC756DF4F888303
:1005F0009983AA83C959D040A601BE016F577F4F86
:10060000C4010E94E10572C1612F70E0950140E0D4
:1006100050E0C6010E94A006892B09F46AC1C756A2
:10062000DF4F88819981AA81C959D0400196A11DC7
:10063000C756DF4F88839983AA83C959D040A60142
:10064000BE016F577F4FC4010E946C0C4FC1612FD8
:1006500070E0950140E050E0C6010E94A006892BA1
:1006600009F447C1C756DF4F88819981AA81C959CA
:10067000D0400196A11DC756DF4F88839983AA8376
:10068000C959D040A601BE016F577F4FC4010E94D7
:10069000360B2CC1612F70E0950140E050E0C6019F
:1006A0000E94A006892B09F424C1C756DF4F888118
:1006B0009981AA81C959D0409C014A2F2F5F3F4F91
:1006C0004F4FC756DF4F288339834A83C959D040DB
:1006D000FC012491A7FD20814BC0950140E050E032
:1006E00060EF70E0C6010E94A006892B09F401C1E9
:1006F000C756DF4F88819981AA81C959D040019698
:10070000A11DC756DF4F88839983AA83C959D0405A
:1007100086E02AE131E040E0F901DE01AD56BF4F4D
:10072000742F0E94EF11D6012C9111963C911197D4
:1007300012964C91129713965C91139714966C91A4
:10074000149715967C91159716968C911697179677
:100750009C91A0E00E94FC1151F400E010E0CF5504
:10076000DF4F288139814A81C15AD040B9C028E77A
:10077000A601BE016F577F4FC4010E94A104B6C0FD
:10078000612F70E09501A1014E0D5F1DC6010E9411
:10079000600AAFC0612F70E0A501C6010E94ED0F95
:1007A000892B09F4A6C0C756DF4F88819981AA8199
:1007B000C959D0409C014A2F2F5F3F4F4F4FC7561A
:1007C000DF4F288339834A83C959D040FC012491E3
:1007D000A7FD2081A601BE016F577F4FC4010E9473
:1007E000A51284C0103809F084C0C756DF4F888135
:1007F0009981AA81C959D0400196A11DC756DF4FE2
:1008000088839983AA83C959D040D501ED91FC9181
:100810001197CF0102968D939C938081F60180837E
:100820005BC0103809F065C0C756DF4F88819981D9
:10083000AA81C959D0400196A11DC756DF4F8883B0
:100840009983AA83C959D040D501ED91FC911197A4
:10085000CF0103968D939C9320813181428100E0EA
:1008600010E03EC0103809F044C0C756DF4F888101
:100870009981AA81C959D0400196A11DC756DF4F61
:1008800088839983AA83C959D040F601708224C015
:10089000D6017C92C256DF4F288139814A81CE59D8
:1008A000D040C756DF4F288339834A83C959D04087
:1008B000CF57DF4F19821882C158D040CB57DF4F36
:1008C00019821882C558D0408FEF9FEFCD57DF4F68
:1008D00099838883C358D04001E010E0462D9201EF
:1008E000BE016F577F4FC4010E94070C8E0D9F1DE4
:1008F00011C0C756DF4F88819981AA81C959D0405C
:100900000196A11DC756DF4F88839983AA83C959D1
:10091000D040C7017101E80EF91EE214F3044CF453
:100920008FE490E090931101809310018FEF9FEF7F
:1009300003C0170121CCC101CD55DF4FE2E10C947A
:02094000821023
:10094200A4E1B0E0E7EAF4E00C94661098878F83A4
:100952007A8369835C8B4B8B122FDB011296ED91AC
:10096200FC91139714962D913C9115973E832D83FC
:10097200ED90FC90119716962D903C901797F7FDED
:1009820003C0E894E1F802C0E1E0F0E0C701807141
:1009920099279A878987E4FE1FC0AB89BC892C916D
:1009A20011963C91119712964C91129713965C9165
:1009B200139714966C91149715967C911597169629
:1009C2008C91169717969C91A0E00E94FC1121F041
:1009D2008D819E81029702C08D819E819701287030
:1009E20033273C872B87E3FC0197AB89BC894C906A
:1009F20011965C90119712966C90129713967C90B8
:100A0200139714968C90149715969C90159716969A
:100A1200AC9016971796BC90A981BA811896CD9082
:100A2200DC901997B1E0CB1AD108D101AC0DBD1DF4
:100A32001C929C838B839F01281B390B3E872D8739
:100A4200C70182709927988B8F87812F012E000C06
:100A5200990BDC01A154B109BA8BA98B32E0C31600
:100A6200D10434F489859A85892B09F04CC073C06E
:100A72009201A301B401C501A0E00E94FC1181F121
:100A8200B1E0CB1AD108C2018F7099278A30910543
:100A920014F4C09602C0895A9F4FE989FA897A975D
:100AA20048F49C012062215631092A31310510F4A3
:100AB2000E944512F101EC0DFD1D80832B813C81CA
:100AC200215031093C832B839201A301B401C5015A
:100AD20004E00E942D1029013A014B015C01BECFB6
:100AE2008D859E85AB81BC818A0F9B1F18161906C6
:100AF2003CF21A161B060CF0B5CFEF85F889EF2BE6
:100B020009F0BECFAFCFAB89BC892C9111963C9135
:100B1200119712964C91129713965C911397149613
:100B22006C91149715967C91159716968C91169741
:100B320017969C91A0E00E94FC1169F0F101EC0D66
:100B4200FD1D31971083B2E0CB1AD108F101EC0DF3
:100B5200FD1D80E38083EB85FC85EF2B41F0F1E006
:100B6200CF1AD108F101EC0DFD1D80E28083A9812D
:100B7200BA8118962D913C911997215031092C195F
:100B82003D09C20CD31CA60160E80D811E818F8134
:100B920098850E94D9099C01EF81F8858081918115
:100BA20090FF09C0A981BA8112968D919C911397E9
:100BB200821793070CF4C9016496E2E10C94821047
:100BC200ADE0B0E0E7EEF5E00C9466109A87898715
:100BD2007C836B83FA01DB011296CD90DC90139734
:100BE20014968D919C9115979E838D83ED90FC9028
:100BF2001197FA82E98216960D90BC91A02DB887C2
:100C0200AF832080318042805380648075808680EB
:100C120097808101B42DF52DE62D7B868C869D86ED
:100C22009101A201B301C401A0E00E94FC114CF4A5
:100C32000E94C2118901B42FF52FE62F7B878C8782
:100C42009D87D7FC04C0E894E1F8FA82E982910119
:100C5200A201B301C401A0E0ED80FE800E94FC115C
:100C62001CF0898182FF04C081E0E81AF10805C006
:100C720083FF03C091E0E91AF108CE0101965C01FD
:100C82008AE0C82ED12C2B2F3F2F4E2F5B856C85EF
:100C92007D858B819C810E940308FC019101A20148
:100CA200B301C401A0E00E94FC111CF0898182FF03
:100CB20012C031970F8118850E0F1F1F9101A201DB
:100CC200B301C401A0E00E94FC1114F08BE201C048
:100CD2008DE2D80108C083FF07C03197AF81B88584
:100CE200AE0FBF1F80E28C93E980FA80AB81BC819A
:100CF20018962D913C911997215031092E1B3F0BCB
:100D02008F819885E80FF91FAF0160E80D811E8180
:100D120089859A850E94D9099C01A985BA858D91F8
:100D22009C9190FF07C0EB81FC81828193818217A5
:0E0D320093070CF4C9012D96E2E10C94821097
:100D40000F931F93CF93DF93FC01D901683871058E
:100D500031F194F461387105B1F12CF4603871050A
:100D600009F478C09FC06238710509F459C064382D
:100D7000710509F46FC096C0603A710509F448C066
:100D80002CF46039710509F44BC08CC0603C7105CE
:100D900009F476C0603F710509F472C083C0CD913B
:100DA000DC911197CE0102968D939C93452B39F0DF
:100DB0009881892F880F880B908381835BC08881FD
:100DC0008083118268C0CD91DC911197CE01049689
:100DD0008D939C93452B99F088819981AA81BB8141
:100DE000AC01BD01770F440B542FBA01808391836E
:100DF000A283B383448345834683478328C0088105
:100E000019812A813B81008311832283338345C06A
:100E1000CD91DC911197CE0102968D939C9323C0C6
:100E2000CD91DC911197CE0108968D939C9378819A
:100E300069815A814B813C812D819E818F81708394
:100E4000618352834383348325839683878381E040
:100E500090E02AC0CD91DC911197CE0102968D933E
:100E60009C93452BA1F099812881892F880F880BAD
:100E70002083918382838383848385838683E6CFE3
:100E8000CD91DC911197CE0102968D939C930881B0
:100E900019810083118312821382148215821682B3
:100EA0001782D5CF80E090E0DF91CF911F910F9115
:020EB0000895A3
:100EB2001F920F920FB60F9211248F929F92AF92B0
:100EC200BF92CF92DF92EF92FF922F933F934F9375
:100ED2005F936F937F938F939F93AF93BF93EF93A0
:100EE200FF93C0901201D0901301E0901401F09092
:100EF200150120911601309117014091180150916E
:100F02001901C701B6010E945E124B015C01609398
:100F1200160170931701809318019093190120E034
:100F220030E044E353E40E94911288234CF420E021
:100F320030E0A901C501B4010E948C12181664F0B8
:100F4200F7FAF094F7F8F094C0921201D0921301DC
:100F5200E0921401F09215018091220190912301F7
:100F62000196909323018093220105972CF1C501EC
:100F7200B4010E9464127F936F9389E091E0A0E034
:100F8200AF939F938F931F9280E18F9380E091E0C4
:100F92009F938F930E94471180E091E00E948011FD
:100FA20010922301109222018DB79EB709960FB6B7
:100FB200F8949EBF0FBE8DBF60911601709117010C
:100FC20080911801909119010E946412CB010E9434
:100FD200D110FF91EF91BF91AF919F918F917F912E
:100FE2006F915F914F913F912F91FF90EF90DF9022
:100FF200CF90BF90AF909F908F900F900FBE0F90A9
:041002001F9018958E
:10100600A2E1B0E0E9E0F8E00C946610FC010A8B7E
:101016001B832C83732E642E552E462E7D83CC8601
:10102600D886BF82AE82868197819B878A87D501C3
:101036004D915C91228133818085918501971C01B8
:1010460037FF02C021E030E0EA85FB85E80FF91F93
:1010560010824701E1E0F0E0FA83E983C9018E19C5
:101066009F099E878D87DA01A270BB27B88BAF8751
:10107600B885BB0FBB0BB98B1214130474F0A9818E
:10108600BA81AB2B09F05CC0AE81BF818D919C917A
:1010960011978F7E8D939C9353C02A893B814C81F7
:1010A600572D662D752D842D9D81A0E00E94FC1183
:1010B600B1F1E1E02E1A3108FC85F987AF2EB8842C
:1010C600C988DC2CEC2CFC2C0C2D1C2D2A893B8190
:1010D6004C81572D662D752D842D9D810E94E11121
:1010E600C90129839A83EA85FB85E20DF31D805D9C
:1010F600808381E0881A91082A893B814C81572D8B
:10110600662D752D842D9D810E94E3112A8B3B83CC
:101116004C83752E662E572E482E9D83ADCF8D851A
:101126009E85880D991D181619061CF218141904A7
:101136000CF0A5CFEF85F889EF2B09F0BACF9FCF3A
:0A114600C1016296E2E10C948210F0
:101150001F920F920FB60F921124CF92DF92EF924F
:101160001F932F933F934F935F936F937F938F932F
:101170009F93AF93BF93CF93DF93EF93FF930E941F
:10118000081225E32A95F1F700000E940D109093B4
:101190002501809324018091240190912501C3971A
:1011A00008F062C081E00E94961282E00E949612CE
:1011B00080912401909125019F938F938EEC90E074
:1011C000A0E0AF939F938F931F9210E11F93C0E015
:1011D000D1E0DF93CF930E944711CE010E9480118E
:1011E00080912401909125019F938F938BED90E046
:1011F000A0E0AF939F938F931F921F93DF93CF93A2
:101200000E9447116E0180E8E82E8E2DB6010E94E3
:101210001B1160E081E00E9432120E94EA109F934D
:101220008F9389EE90E0A0E0AF939F938F931F92EE
:101230001F93DF93CF930E9447118E2DB6010E941A
:101240001B110E9428122DB73EB7255E3F4F0FB6E7
:10125000F8943EBF0FBE2DBF811106C080912401BE
:10126000909125010E949E0EFF91EF91DF91CF9109
:10127000BF91AF919F918F917F916F915F914F91AE
:101280003F912F911F91EF90DF90CF900F900FBE65
:061290000F901F9018955D
:101296001F920F920FB60F9211242F933F934F93E5
:1012A6005F936F937F938F939F93EF93FF9347B5CE
:1012B60050E0609120017091210120911E01309132
:1012C6001F01629FC001639F900D729F900D1124B4
:1012D600992314F481509C4F292F25952595392F54
:1012E600330F330B42175307F9F485B18E7F85B957
:1012F60020911E0130911F0180E094E0821B930B28
:101306004091200150912101849F9001859F300DCD
:10131600949F300D1124332314F421503C4F832F16
:101326008595859587BD1AC085B1816085B940913F
:1013360020015091210120911E0130911F01429FF1
:10134600C001439F900D529F900D1124992314F4D0
:1013560081509C4F892F8595859587BD80911C016D
:1013660090911D01019690931D0180931C0120917F
:101376001A0130911B012817390748F410921D01F4
:1013860010921C01EEE6F0E080818D7F8083FF9154
:10139600EF919F918F917F916F915F914F913F91C7
:0C13A6002F910F900FBE0F901F90189514
:1013B2002F923F924F926F927F928F92AF92BF92F3
:1013C200CF92DF92EF92FF920F931F93CF93DF930F
:1013D200CDB7DEB766970FB6F894DEBF0FBECDBFAE
:1013E2005C013A01862E6901C701817099279C8BA5
:1013F2008B8BE0FC1DC020173107D4F47801EC1868
:10140200FD08FE8AED8AA70191E1E916F10410F0C8
:1014120040E150E060E270E0CE0101969A8B898B48
:101422000E943C1289899A891C0120E8422E0BC035
:101432009601682DA301C5010E94220FC016D10694
:10144200ECF2C60125C090E1E916F10458F020E162
:1014520030E0642DA101C5010E94220F80E1E81A4B
:10146200F108F1CF2D893E892F70332789899A8916
:10147200AC0160E8C5010E94220F8B899C89892BEF
:1014820031F49601682DA301C5010E94220FC80103
:1014920066960FB6F894DEBF0FBECDBFDF91CF9137
:1014A2001F910F91FF90EF90DF90CF90BF90AF9080
:0E14B2008F907F906F904F903F902F900895F5
:1014C000CF93DF93DC01F90164387105D9F164F43D
:1014D0006138710521F16238710509F440C0603846
:1014E000710509F054C02EC060397105C1F184F452
:1014F0006838710509F04BC0C081D181CE010296D8
:1015000091838083E881F981ED93FC9340833CC013
:10151000603A7105B9F0603C7105A1F038C0C08136
:10152000D181CE01029691838083E881F981ED9388
:10153000FC93052E000C660B770B4083518362836E
:10154000738322C0C081D181CE01029691838083B2
:10155000E881F981ED93FC935183408315C0C081EC
:10156000D181CE01029691838083E881F981ED9348
:10157000FC9351834083852F880F880B828383835C
:10158000848385838683878381E090E002C080E046
:0815900090E0DF91CF91089576
:101598000FC00E946B1238F00E94721220F095233F
:1015A80011F00C9486120C94A21211240C947A1245
:1015B8000E94A90F70F3959FC1F3950F50E0551F36
:1015C800629FF001729FBB27F00DB11D639FAA2790
:1015D800F00DB11DAA1F649F6627B00DA11D661FDF
:1015E800829F2227B00DA11D621F739FB00DA11D00
:1015F800621F839FA00D611D221F749F3327A00DBA
:10160800611D231F849F600D211D822F762F6A2F55
:1016180011249F5750409AF0F1F088234AF0EE0FBA
:10162800FF1FBB1F661F771F881F91505040A9F7E7
:101638009E3F510580F00C9486120C947A125F3FFD
:10164800E4F3983ED4F3869577956795B795F79523
:10165800E7959F5FC1F7FE2B880F911D969587959B
:0416680097F9089551
:10166C00A2E0B0E0ECE3FBE00C9466101C014B0133
:10167C00FA01DB0112962D913C91139714964D9023
:10168C005C9015978D919C9111979A8389831696EE
:10169C006D907C90179737FD03C08D7F9A8389835B
:1016AC00008111812281338144815581668177814A
:1016BC00FE0131965F0188E0C82ED12C7201C40165
:1016CC000E940308298124FF06C00197F301E80F4B
:1016DC00F91F20E32083298123FF06C00197F30122
:1016EC00E80FF91F20E22083E980FA80D4011896D4
:1016FC002D913C91199721503109281B390B860DDE
:10170C00971DAC0160E88201C1010E94D9099C01BE
:10171C00F1018081918190FF08C0D40112968D91C6
:10172C009C911397821793070CF4C9012296E2E15E
:04173C000C94821077
:1017400011C00E946B1238F00E94721220F039F41E
:101750009F3F19F426F40C94A2120EF4E095E7FBD7
:101760000C948612E92F0E94A90F58F3BA1762074A
:1017700073078407950720F079F4A6F50C94791285
:101780000EF4E0950B2EBA2FA02D0B01B90190019C
:101790000C01CA01A0011124FF27591B99F0593FE0
:1017A00050F4503E68F11A16F040A22F232F342F28
:1017B0004427585FF3CF469537952795A795F04076
:1017C0005395C9F77EF41F16BA0B620B730B840B8B
:1017D000BAF09150A1F0FF0FBB1F661F771F881F43
:1017E000C2F70EC0BA0F621F731F841F48F487959B
:1017F00077956795B795F7959E3F08F0B0CF93958D
:0E180000880F08F09927EE0F979587950895A9
:10180E002F923F924F926F927F928F92AF92BF9292
:10181E00CF92DF92EF92FF920F931F93CF93DF93AE
:10182E00CDB7DEB727970FB6F894DEBF0FBECDBF8C
:10183E006C017B013901842E980183E1282E81E011
:10184E00382E80E0482E87E0F101AE014F5F5F4FEA
:10185E00DA01742D0E94EF11F70102811381A48029
:10186E00B580E080F18061147104810419F43A01AD
:10187E00F0E88F2E2115310529F4882DB3010E9431
:10188E0031119C0117FD04C00217130708F49801CB
:10189E008501682DA301C6010E94D90927960FB6AE
:1018AE00F894DEBF0FBECDBFDF91CF911F910F9188
:1018BE00FF90EF90DF90CF90BF90AF908F907F9082
:0A18CE006F904F903F902F90089507
:1018D800A2E0B0E0E2E7FCE00C9466103C014B01AA
:1018E800FA01DB0112962D913C91139714964D90B5
:1018F8005C9015978D919C9111979A838983169680
:101908002D903C90179737FD03C08D7F9A8389836C
:1019180000811181228133814481558166817781DB
:10192800FE0131965F018AE0C82ED12C7201C401F4
:101938000E940308E980FA80D40118962D913C9101
:10194800199721503109281B390B820D931DAC01C1
:1019580060E88201C3010E94D9099C01F3018081DA
:10196800918190FF08C0D40112968D919C91139794
:10197800821793070CF4C9012296E2E10C948210B5
:1019880087B18E6087B98DEF8AB987B1806187B9D1
:101998008BB182708BB988B18F7E88B92FEF80E7C1
:1019A80092E0215080409040E1F700C0000080E3C1
:1019B8000E9496128FE19EE40197F1F700C00000A3
:1019C80080E30E9496128FE891E00197F1F700C03A
:1019D800000080E30E9496128FE891E00197F1F7EA
:1019E80000C0000088E30E9496128FE891E00197FA
:1019F800F1F700C000008CE00E9496128FE891E099
:101A08000197F1F700C0000081E00E9496128FE371
:101A18009FE10197F1F700C0000086E00E9496124E
:0E1A28008FE891E00197F1F700C000000895EB
:101A36006F927F928F92EF92FF920F931F93CF93A5
:101A4600DF93CDB7DEB761970FB6F894DEBF0FBE52
:101A5600CDBFFE01319651E1DF011D925A95E9F79E
:101A6600A2E0B1E0BA83A9839C838B8377FF09C088
:101A76008FE490E090931101809310018FEF9FEF18
:101A860019C03901842E7C01615071097F836E83F0
:101A96009801682DA301CF010E940311488559853D
:101AA6002E813F814217530708F49A01F701E20F8E
:101AB600F31F108261960FB6F894DEBF0FBECDBF3E
:101AC600DF91CF911F910F91FF90EF908F907F90B4
:041AD6006F90089570
:101ADA0088249924F401E401B0E49F93AA279A1573
:101AEA008B049C04ED05FE05CF05D007A10798F4E9
:101AFA00AD2FDC2FCF2FFE2FE92D982C892E982F72
:101B0A00872F762F652F542F432F322F2227B85035
:101B1A0031F7BF9127C01B2EBF91BB27220F331F5E
:101B2A00441F551F661F771F881F991F881C991C01
:101B3A00EE1FFF1FCC1FDD1FAA1FBB1F8A149B04A9
:101B4A00EC05FD05CE05DF05A007B10748F08A18A8
:101B5A009B08EC09FD09CE09DF09A00BB10B216036
:101B6A001A94E1F62EF49401AF01BE01CD01000CE6
:021B7A000895CC
:101B7C00CF92DF92EF92DC0190E0292F30E0220F20
:101B8C00331F6901032E000CEE086E2DA6014D507B
:101B9C005F4F6F4F6A01E62EFA018491E7FC80815A
:101BAC0081110DC02F5F3F4F032E000C440B2D50A5
:101BBC003F4F4F4FF901849147FD808124C0CD9058
:101BCC00DD90EC901297F6014491E7FC4081841370
:101BDC0015C02F5F3F4F032E000C440B2D503F4F71
:101BEC004F4FF901949147FD90815FEFC51AD50ACB
:101BFC00E50ACD92DD92EC92129701C09F5F9B306B
:0E1C0C0008F4BBCF892FEF90DF90CF900895A2
:101C1A000F931F93CF93DF93DB012D913C91119783
:101C2A0030FF25C017964D915C91189715962D9106
:101C3A003C9116974217530778F41296ED91FC914E
:101C4A001397808312962D913C9113972F5F3F4FE4
:101C5A0013963C932E93129717962D913C911897B1
:101C6A002F5F3F4F18963C932E93179715C01D96DA
:101C7A00ED91FC911E97309719F48FEF9FEF0CC0EE
:101C8A008B01EC010995892BC1F7F80187819085B1
:101C9A00019690878783CE01DF91CF911F910F9193
:021CAA0008959B
:101CAC00CF939B01482FF901849147FD80818032AD
:101CBC00C9F1682F082E000C770B6950710965303B
:101CCC00710580F18B3249F5A0E0B0E02F5F3F4FFA
:101CDC004F4F02C0A0E0B0E080E090E0CAE0F90114
:101CEC00649147FD6081062E000C770B60537109DF
:101CFC006A30710560F4C89FF001C99FF00D112482
:101D0C002F5F3F4F4F4FCF01861B970BE8CFAB2B6D
:101D1C0069F491958195910909C08D32D9F6A1E0AC
:101D2C00B0E0D4CF2F5F3F4F4F4FBDCFCF91089531
:101D3C004CEF51E29C01249FC001259F900D349FD4
:101D4C00900D11249C0136952795ABE7B4E10E94C8
:101D5C00D211969587959C01245D3E4F30931B01C3
:101D6C0020931A01322F222740E050E060E074E209
:101D7C0084EF90E00E94CB0F30932101209320013F
:101D8C000E945C1190931F0180931E0140912001D1
:101D9C0050912101849F9001859F300D949F300DAF
:101DAC001124332314F421503C4F832F85958595B2
:0E1DBC0087BDEEE6F0E08081826080830895AE
:101DCA00E89409C097FB3EF49095809570956195CB
:101DDA007F4F8F4F9F4F9923A9F0F92F96E9BB2781
:101DEA009395F695879577956795B795F111F8CFFD
:101DFA00FAF4BB0F11F460FF1BC06F5F7F4F8F4F68
:101E0A009F4F16C0882311F096E911C0772321F05D
:101E1A009EE8872F762F05C0662371F096E8862FF5
:101E2A0070E060E02AF09A95660F771F881FDAF74C
:0A1E3A00880F9695879597F9089593
:101E44006F927F928F92CF92DF92EF920F931F93B4
:101E5400CF93DF938C016A01E62EE9013A01862EC5
:101E6400620E731E811C37FD8A94C614D704E804DD
:101E740079F0F6018491E7FC8081B801082E000C0A
:101E8400990B0E940D0E8FEFC81AD80AE80AEDCFFD
:101E9400CE01DF91CF911F910F91EF90DF90CF9002
:081EA4008F907F906F9008956C
:101EAC000E94B10F88F09F5798F0B92F9927B7511E
:101EBC00B0F0E1F0660F771F881F991F1AF0BA95E2
:101ECC00C9F714C0B13091F00E947912B1E00895B5
:101EDC000C947912672F782F8827B85F39F0B93FA7
:101EEC00CCF3869577956795B395D9F73EF4909595
:0E1EFC008095709561957F4F8F4F9F4F089591
:101F0A00990F0008550FAA0BE0E8FEEF1616170600
:101F1A00E807F907C0F012161306E407F50798F068
:101F2A00621B730B840B950B39F40A2661F0232B81
:101F3A00242B252B21F408950A2609F4A140A695FD
:081F4A008FEF811D811D089538
:101F520057FD9058440F551F59F05F3F71F0479558
:101F6200880F97FB991F61F09F3F79F0879508953D
:101F7200121613061406551FF2CF4695F1DF08C05C
:101F8200161617061806991FF1CF86957105610579
:041F92000894089512
:101F9600A1E21A2EAA1BBB1BFD010DC0AA1FBB1F67
:101FA600EE1FFF1FA217B307E407F50720F0A21BD9
:101FB600B30BE40BF50B661F771F881F991F1A9446
:101FC60069F760957095809590959B01AC01BD0170
:041FD600CF0108959A
:101FDA00FA0160387105CCF0623871051CF063387B
:101FEA00710599F4A081B1819D012C5F3F4F318326
:101FFA0020834D915D916D917C91FC0140835183C9
:10200A006283738381E090E0089580E090E0089510
:10201A001C9BFECF10928500109284001C99FECF63
:10202A00209184003091850036952795ACEFB5E86C
:10203A000E94D2110E94E70E2DEB37E346E858E3DF
:0C204A000E949E120E94560FCB010895C8
:1020560097FB10F8169400080F93083098F0085074
:10206600232F342F452F562F672F782F892F902D0A
:10207600F4CF0594979587957795679557954795E6
:0C208600379527950A95AAF70F91089549
:1020920081FF04C098B1906198B903C098B19F7E46
:1020A20098B99BB192708D7F892B8BB9662321F0F1
:1020B20088B1886088B903C088B1877F88B988B140
:0A20C2008B7F88B90E946F1108950A
:1020CC002F923F924F925F926F927F928F929F923C
:1020DC00AF92BF92CF92DF92EF92FF920F931F932A
:1020EC00CF93DF93CDB7DEB7CA1BDB0B0FB6F894DB
:0820FC00DEBF0FBECDBF099449
:102104002A88398848885F846E847D848C849B8483
:10211400AA84B984C884DF80EE80FD800C811B8191
:10212400AA81B981CE0FD11D0FB6F894DEBF0FBEC0
:06213400CDBFED0108958E
:10213A0084B1886084B983E88093B00087E0809393
:10214A00B10082E898EAABE7BEE38093120190936C
:10215A001301A0931401B09315018AE590E00E943F
:04216A00D1100895F3
:10216E0084B1806284B984B18F7E84B985B18F7D4C
:10217E0085B9109280008DE08093810085E39CE00C
:10218E009093890080938800EFE6F0E08081826072
:04219E00808308959D
:1021A2009C01220F331F22953295307F3227207FE8
:1021B2003227A3E8BDE20E94D211969587959295A7
:1021C20082958F7089279F70892707968093B30025
:0221D20008956E
:1021D4002091B30030E02750310944EB429FC00105
:1021E400439F900D112499230CF44F969595879550
:1021F40095958795959587959595879595958795C3
:0222040008953B
:10220600A2E0B0E0E9E0F1E10C9474108C013A83AD
:1022160029839E012F5F3F4F0E949000F801208185
:1022260024FF02C08FEF9FEF2296E4E00C949010FB
:10223600CF92DF92EF926B01E82E06C09FEFC91A8C
:10224600D90AE90A0E949A12F6018491E7FC808174
:0C2256008111F4CFEF90DF90CF9008953D
:10226200CF92DF92EF926B01E82EA82FCB01FC01F7
:102272002491A7FD2081222319F00196A11DF7CFF9
:0C2282008C199D09EF90DF90CF9008951B
:10228E00A0E0B0E0EDE4F1E10C9474108E01025F79
:10229E001F4F2B853C854D8569857A858F81988565
:0A22AE000E941B0DE4E00C94901058
:1022B800EAE7F0E080818064808380917A0084FF7F
:1022C800FCCFEAE7F0E0808180618083809178002C
:0622D800909179000895C9
:1022DE0088B1826088B985E08A95F1F7000088B1EF
:1022EE008D7F88B98FE891E00197F1F700C000006B
:0222FE00089541
:10230000AC0120E007C09091C00095FFFCCF309356
:10231000C6002F5FFA01E20FF11D30813111F3CFBA
:0223200008951E
:10232200092E0394000C11F4882352F0BB0F40F4E1
:10233200BF2B11F460FF04C06F5F7F4F8F4F9F4F21
:022342000895FC
:102344000E94B2110E949D100E9480120E94B71038
:102354000E9456120E941E120E94C40C7894FFCF51
:102364001092C50087E68093C400E1ECF0E0808120
:1023740088608083E2ECF0E0808186608083089549
:1023840060957095809590953095409550952195E0
:102394003F4F4F4F5F4F6F4F7F4F8F4F9F4F08956A
:1023A400A29FB001B39FC001A39F700D811D112492
:0E23B400911DB29F700D811D1124911D089581
:1023C200689401C0E8948F929F92CF93DF930E940A
:0C23D2006D0DDF91CF919F908F900895CA
:1023DE00992777FD05C005900D920197E1F70895B5
:0A23EE0001900D920197E1F70895A8
:1023F8000024A7FD00942A17300540055005600504
:082408007005800590050895A0
:1024100085B1806285B985E38A95F1F7000085B1C1
:062420008F7D85B90895CF
:10242600EC010E94AD120E94AC12CE010E94AE12C7
:06243600CE010E94AA1273
:10243C0084B1816084B982E084BD84E085BD84E68A
:04244C0087BD0895AB
:1024500020911C0130911D0181E0121613060CF031
:0424600080E008957B
:10246400882319F0813029F4605C862F80680E94EB
:04247400961208951F
:10247800FC01480F591FE417F50711F06193FBCFD2
:022488000895B5
:10248A009C01215631092A31310510F48F7599279B
:02249A000895A3
:10249C009C01215431092A31310508F480620895D8
:0E24AC0080E880937C0087E880937A00089592
:0E24BA005058BB27AA270E94A00B0C9491112A
:0E24C8000E94560F6894B1110C947A12089578
:0E24D60000240A941616170618060906089523
:0E24E40000240A941216130614060506089525
:0E24F200E894BB2766277727CB0197F908955A
:0C250000E0E7F0E08081816080830895B6
:0C250C0097F99F6780E870E060E0089598
:0A2518000E94850F08F481E0089589
:0A2522000E94850F08F48FEF089562
:08252C0060E00E9449100895CF
:0825340061E00E9449100895C6
:08253C000E94CC0A0C949111DD
:062544009FEF80EC0895FA
:06254A0080E090E008951E
:042550000C940000E7
:042554000E9465007C
:022558000895E4
:02255A000895E2
:02255C000895E0
:02255E00640017
:00000001FF
